:100000000C9434000C9451000C9451000C94510049
:100010000C9451000C9451000C9451000C9451001C
:100020000C9451000C9451000C9451000C9451000C
:100030000C9451000C9451000C9451000C945100FC
:100040000C94D1000C9451000C9451000C9451006C
:100050000C9451000C941B010C9451000C94510011
:100060000C9451000C94510011241FBECFEFD8E026
:10007000DEBFCDBF11E0A0E0B1E0E0E1F5E002C0FD
:1000800005900D92AC30B107D9F721E0ACE0B1E0BA
:1000900001C01D92A831B207E1F70E9434010C940F
:1000A00086020C9400003FB7F89480911101909162
:1000B0001201A0911301B091140126B5A89B05C0AF
:1000C0002F3F19F00196A11DB11D3FBFBA2FA92FD7
:1000D000982F8827BC01CD01620F711D811D911DD4
:1000E00042E0660F771F881F991F4A95D1F7089540
:1000F0008F929F92AF92BF92CF92DF92EF92FF9238
:100100004B015C010E9453006B017C010E94530073
:100110006C197D098E099F09683E73408105910520
:10012000A8F321E0821A9108A108B10888EEC80E50
:1001300083E0D81EE11CF11C81149104A104B104D8
:1001400029F7FF90EF90DF90CF90BF90AF909F90F6
:100150008F900895299A299883EC90E00197F1F700
:1001600008950F931F93CF93DF93EC0103EC10E0FE
:100170008991882341F0289A8BB90E94AA00C8016E
:100180000197F1F7F5CFDF91CF911F910F9108956E
:1001900028988BB90E94AA008BE39FE10197F1F7A1
:1001A00008951F920F920FB60F9211242F933F9331
:1001B0008F939F93AF93BF9380910D0190910E0108
:1001C000A0910F01B091100130910C0123E0230F99
:1001D0002D3758F50196A11DB11D20930C01809378
:1001E0000D0190930E01A0930F01B0931001809127
:1001F000110190911201A0911301B0911401019687
:10020000A11DB11D8093110190931201A0931301C0
:10021000B0931401BF91AF919F918F913F912F9116
:100220000F900FBE0F901F90189526E8230F02968F
:10023000A11DB11DD2CF1F920F920FB60F921124A4
:100240008F939F93809178009091790090931601FD
:100250008093150181E0809317019F918F910F90FA
:100260000FBE0F901F901895CF93DF93CDB7DEB7D9
:100270002B970FB6F894DEBF0FBECDBF789484B530
:10028000826084BD84B5816084BD85B5826085BD92
:1002900085B5816085BD80916E00816080936E0020
:1002A0001092810080918100826080938100809112
:1002B00081008160809381008091800081608093C3
:1002C00080008091B10084608093B1008091B00083
:1002D00081608093B00080917A00846080937A007E
:1002E00080917A00826080937A0080917A008160A8
:1002F00080937A0080917A00806880937A001092CF
:10030000C1008FEF8AB984B1836084B962E370E081
:1003100080E090E00E9478006FE070E080E090E084
:100320000E94780088E30E94C80065E070E080E0E9
:1003300090E00E94780088E30E94C80061E070E0CD
:1003400080E090E00E94780088E30E94C8008CE082
:100350000E94C80081E00E94C80062E070E080E076
:1003600090E00E94780086E00E94C80080E48093BC
:100370007C008FE880937A00789480917A00806482
:1003800080937A0088248A9483E0982EA12CB12C43
:1003900000E010E080911701882309F44DC010920D
:1003A0001701E0901501F090160181E00E94C8004D
:1003B00062E070E080E090E00E94780080E80E94B7
:1003C000C80080E091E00E94B10060911501709139
:1003D000160190E080E02AE0AE014F5F5F4F0E947F
:1003E0002302CE0101960E94B10080EC0E94C80059
:1003F00086E091E00E94B1009701A8E8B3E10E9475
:100400007702A50194010E945502CA01B9012AE0B0
:10041000AE014F5F5F4F0E942302CE0101960E9402
:10042000B10068EC70E080E090E00E94780080917C
:100430007A00806480937A000115110509F4AACF2F
:100440000E940000A7CFBB27FA01A62F62177105F3
:1004500081059105330B30FB66F0AA27660F771FE5
:10046000881F991FAA1FA21710F0A21B639538506E
:10047000A9F7A05DAA3308F0A95DA19336F7B111E1
:10048000B1931082CA010C944502DC01FC01672F74
:1004900071917723E1F7329704C07C916D9370835B
:1004A0006291AE17BF07C8F30895A1E21A2EAA1BE6
:1004B000BB1BFD010DC0AA1FBB1FEE1FFF1FA21714
:1004C000B307E407F50720F0A21BB30BE40BF50B11
:1004D000661F771F881F991F1A9469F7609570959A
:1004E000809590959B01AC01BD01CF010895A29F1D
:1004F000B001B39FC001A39F700D811D1124911DF8
:10050000B29F700D811D1124911D0895F894FFCFA5
:0C0510005241573A20006D563A2000007E
:00000001FF
